{
  "address": "0xCf7Ed3AccA5a467e9e704C703E8D87F634fB0Fc9",
  "abi": [
    {
      "inputs": [
        {
          "internalType": "address",
          "name": "vrfCoordinatorV2",
          "type": "address"
        },
        {
          "internalType": "uint256",
          "name": "_entranceFee",
          "type": "uint256"
        },
        {
          "internalType": "bytes32",
          "name": "_keyHash",
          "type": "bytes32"
        },
        {
          "internalType": "uint64",
          "name": "_subscriptionId",
          "type": "uint64"
        },
        {
          "internalType": "uint32",
          "name": "_callbackGasLimit",
          "type": "uint32"
        },
        {
          "internalType": "uint256",
          "name": "_interval",
          "type": "uint256"
        }
      ],
      "stateMutability": "nonpayable",
      "type": "constructor"
    },
    {
      "inputs": [],
      "name": "NotEnoughETHEntered",
      "type": "error"
    },
    {
      "inputs": [],
      "name": "NotOpen",
      "type": "error"
    },
    {
      "inputs": [
        {
          "internalType": "address",
          "name": "have",
          "type": "address"
        },
        {
          "internalType": "address",
          "name": "want",
          "type": "address"
        }
      ],
      "name": "OnlyCoordinatorCanFulfill",
      "type": "error"
    },
    {
      "inputs": [],
      "name": "TransferFailed",
      "type": "error"
    },
    {
      "inputs": [
        {
          "internalType": "uint256",
          "name": "currentBalance",
          "type": "uint256"
        },
        {
          "internalType": "uint256",
          "name": "numPlayers",
          "type": "uint256"
        },
        {
          "internalType": "uint256",
          "name": "raffleState",
          "type": "uint256"
        },
        {
          "internalType": "uint256",
          "name": "passedTime",
          "type": "uint256"
        }
      ],
      "name": "UpkeepNotNeeded",
      "type": "error"
    },
    {
      "anonymous": false,
      "inputs": [
        {
          "indexed": true,
          "internalType": "address",
          "name": "player",
          "type": "address"
        }
      ],
      "name": "RaffleEnter",
      "type": "event"
    },
    {
      "anonymous": false,
      "inputs": [
        {
          "indexed": true,
          "internalType": "uint256",
          "name": "requestId",
          "type": "uint256"
        }
      ],
      "name": "RequestedRaffleWinner",
      "type": "event"
    },
    {
      "anonymous": false,
      "inputs": [
        {
          "indexed": true,
          "internalType": "address",
          "name": "winner",
          "type": "address"
        }
      ],
      "name": "WinnerPicked",
      "type": "event"
    },
    {
      "inputs": [
        {
          "internalType": "bytes",
          "name": "",
          "type": "bytes"
        }
      ],
      "name": "checkUpkeep",
      "outputs": [
        {
          "internalType": "bool",
          "name": "upkeepNeeded",
          "type": "bool"
        },
        {
          "internalType": "bytes",
          "name": "",
          "type": "bytes"
        }
      ],
      "stateMutability": "view",
      "type": "function"
    },
    {
      "inputs": [],
      "name": "enterRaffle",
      "outputs": [],
      "stateMutability": "payable",
      "type": "function"
    },
    {
      "inputs": [],
      "name": "getEntranceFee",
      "outputs": [
        {
          "internalType": "uint256",
          "name": "",
          "type": "uint256"
        }
      ],
      "stateMutability": "view",
      "type": "function"
    },
    {
      "inputs": [],
      "name": "getInterval",
      "outputs": [
        {
          "internalType": "uint256",
          "name": "",
          "type": "uint256"
        }
      ],
      "stateMutability": "view",
      "type": "function"
    },
    {
      "inputs": [],
      "name": "getLatestTimeStamp",
      "outputs": [
        {
          "internalType": "uint256",
          "name": "",
          "type": "uint256"
        }
      ],
      "stateMutability": "view",
      "type": "function"
    },
    {
      "inputs": [],
      "name": "getNumWords",
      "outputs": [
        {
          "internalType": "uint256",
          "name": "",
          "type": "uint256"
        }
      ],
      "stateMutability": "pure",
      "type": "function"
    },
    {
      "inputs": [],
      "name": "getNumberOfPlayers",
      "outputs": [
        {
          "internalType": "uint256",
          "name": "",
          "type": "uint256"
        }
      ],
      "stateMutability": "view",
      "type": "function"
    },
    {
      "inputs": [
        {
          "internalType": "uint256",
          "name": "_idx",
          "type": "uint256"
        }
      ],
      "name": "getPlayer",
      "outputs": [
        {
          "internalType": "address",
          "name": "",
          "type": "address"
        }
      ],
      "stateMutability": "view",
      "type": "function"
    },
    {
      "inputs": [],
      "name": "getRaffleState",
      "outputs": [
        {
          "internalType": "enum Raffle.RaffleState",
          "name": "",
          "type": "uint8"
        }
      ],
      "stateMutability": "view",
      "type": "function"
    },
    {
      "inputs": [],
      "name": "getRecentWinner",
      "outputs": [
        {
          "internalType": "address",
          "name": "",
          "type": "address"
        }
      ],
      "stateMutability": "view",
      "type": "function"
    },
    {
      "inputs": [],
      "name": "getRequestConfirmations",
      "outputs": [
        {
          "internalType": "uint256",
          "name": "",
          "type": "uint256"
        }
      ],
      "stateMutability": "pure",
      "type": "function"
    },
    {
      "inputs": [
        {
          "internalType": "bytes",
          "name": "",
          "type": "bytes"
        }
      ],
      "name": "performUpkeep",
      "outputs": [],
      "stateMutability": "nonpayable",
      "type": "function"
    },
    {
      "inputs": [
        {
          "internalType": "uint256",
          "name": "requestId",
          "type": "uint256"
        },
        {
          "internalType": "uint256[]",
          "name": "randomWords",
          "type": "uint256[]"
        }
      ],
      "name": "rawFulfillRandomWords",
      "outputs": [],
      "stateMutability": "nonpayable",
      "type": "function"
    }
  ],
  "transactionHash": "0x222e54f073238b3d32970d7691311b8a016f3be05456b2a8e73db41c234d957f",
  "args": [
    "0x5FbDB2315678afecb367f032d93F642f64180aa3",
    "10000000000000000",
    "0x79d3d8832d904592c0bf9818b621522c988bb8b0c05cdc3b15aea1b6e8db0c15",
    "1",
    "500000",
    "30"
  ],
  "numDeployments": 1,
  "solcInputHash": "6194dcf836f0ccc9c6cae60494d6473f",
  "bytecode": "0x6101606040523480156200001257600080fd5b506040516200195238038062001952833981810160405281019062000038919062000294565b858073ffffffffffffffffffffffffffffffffffffffff1660808173ffffffffffffffffffffffffffffffffffffffff1681525050508573ffffffffffffffffffffffffffffffffffffffff1660c08173ffffffffffffffffffffffffffffffffffffffff16815250508460a081815250508360e081815250508267ffffffffffffffff166101008167ffffffffffffffff16815250508163ffffffff166101208163ffffffff16815250508061014081815250506000600160146101000a81548160ff0219169083600181111562000116576200011562000330565b5b0217905550426002819055505050505050506200035f565b600080fd5b600073ffffffffffffffffffffffffffffffffffffffff82169050919050565b6000620001608262000133565b9050919050565b620001728162000153565b81146200017e57600080fd5b50565b600081519050620001928162000167565b92915050565b6000819050919050565b620001ad8162000198565b8114620001b957600080fd5b50565b600081519050620001cd81620001a2565b92915050565b6000819050919050565b620001e881620001d3565b8114620001f457600080fd5b50565b6000815190506200020881620001dd565b92915050565b600067ffffffffffffffff82169050919050565b6200022d816200020e565b81146200023957600080fd5b50565b6000815190506200024d8162000222565b92915050565b600063ffffffff82169050919050565b6200026e8162000253565b81146200027a57600080fd5b50565b6000815190506200028e8162000263565b92915050565b60008060008060008060c08789031215620002b457620002b36200012e565b5b6000620002c489828a0162000181565b9650506020620002d789828a01620001bc565b9550506040620002ea89828a01620001f7565b9450506060620002fd89828a016200023c565b93505060806200031089828a016200027d565b92505060a06200032389828a01620001bc565b9150509295509295509295565b7f4e487b7100000000000000000000000000000000000000000000000000000000600052602160045260246000fd5b60805160a05160c05160e051610100516101205161014051611583620003cf600039600081816107fa0152610893015260006106b3015260006106900152600061066f015260006106330152600081816102fa01526103f7015260008181610337015261038b01526115836000f3fe6080604052600436106100c25760003560e01c8063473f1ddc1161007f5780636e04ff0d116100595780636e04ff0d1461022557806391ad27b414610263578063e55ae4e81461028e578063fd6673f5146102cb576100c2565b8063473f1ddc146101a457806353a2c19a146101cf5780635f1b0fd8146101fa576100c2565b806309bc33a7146100c7578063115cbaf5146100f25780631fe543e31461011d5780632cfcc53914610146578063320229eb146101505780634585e33b1461017b575b600080fd5b3480156100d357600080fd5b506100dc6102f6565b6040516100e99190610c82565b60405180910390f35b3480156100fe57600080fd5b5061010761031e565b6040516101149190610d14565b60405180910390f35b34801561012957600080fd5b50610144600480360381019061013f9190610ec8565b610335565b005b61014e6103f5565b005b34801561015c57600080fd5b50610165610563565b6040516101729190610c82565b60405180910390f35b34801561018757600080fd5b506101a2600480360381019061019d9190610f7f565b61056d565b005b3480156101b057600080fd5b506101b961076c565b6040516101c6919061100d565b60405180910390f35b3480156101db57600080fd5b506101e4610796565b6040516101f19190610c82565b60405180910390f35b34801561020657600080fd5b5061020f6107a5565b60405161021c9190610c82565b60405180910390f35b34801561023157600080fd5b5061024c600480360381019061024791906110dd565b6107b2565b60405161025a9291906111c0565b60405180910390f35b34801561026f57600080fd5b5061027861088f565b6040516102859190610c82565b60405180910390f35b34801561029a57600080fd5b506102b560048036038101906102b091906111f0565b6108b7565b6040516102c2919061100d565b60405180910390f35b3480156102d757600080fd5b506102e0610946565b6040516102ed9190610c82565b60405180910390f35b60007f0000000000000000000000000000000000000000000000000000000000000000905090565b6000600160149054906101000a900460ff16905090565b7f000000000000000000000000000000000000000000000000000000000000000073ffffffffffffffffffffffffffffffffffffffff163373ffffffffffffffffffffffffffffffffffffffff16146103e757337f00000000000000000000000000000000000000000000000000000000000000006040517f1cf993f40000000000000000000000000000000000000000000000000000000081526004016103de92919061121d565b60405180910390fd5b6103f18282610952565b5050565b7f000000000000000000000000000000000000000000000000000000000000000034101561044f576040517f3c21f23000000000000000000000000000000000000000000000000000000000815260040160405180910390fd5b60018081111561046257610461610c9d565b5b600160149054906101000a900460ff16600181111561048457610483610c9d565b5b036104bb576040517fddafad9800000000000000000000000000000000000000000000000000000000815260040160405180910390fd5b6000339080600181540180825580915050600190039060005260206000200160009091909190916101000a81548173ffffffffffffffffffffffffffffffffffffffff021916908373ffffffffffffffffffffffffffffffffffffffff1602179055503373ffffffffffffffffffffffffffffffffffffffff167f0805e1d667bddb8a95f0f09880cf94f403fb596ce79928d9f29b74203ba284d460405160405180910390a2565b6000600254905090565b6000610587604051806020016040528060008152506107b2565b509050806106055747600080549050600160149054906101000a900460ff1660018111156105b8576105b7610c9d565b5b600254426105c69190611275565b6040517fd1b608610000000000000000000000000000000000000000000000000000000081526004016105fc94939291906112a9565b60405180910390fd5b60018060146101000a81548160ff0219169083600181111561062a57610629610c9d565b5b021790555060007f000000000000000000000000000000000000000000000000000000000000000073ffffffffffffffffffffffffffffffffffffffff16635d3b1d307f00000000000000000000000000000000000000000000000000000000000000007f000000000000000000000000000000000000000000000000000000000000000060037f000000000000000000000000000000000000000000000000000000000000000060016040518663ffffffff1660e01b81526004016106f4959493929190611366565b6020604051808303816000875af1158015610713573d6000803e3d6000fd5b505050506040513d601f19601f8201168201806040525081019061073791906113ce565b9050807fcd6e45c8998311cab7e9d4385596cac867e20a0587194b954fa3a731c93ce78b60405160405180910390a250505050565b6000600160009054906101000a900473ffffffffffffffffffffffffffffffffffffffff16905090565b6000600163ffffffff16905090565b6000600361ffff16905090565b6000606060009150600060018111156107ce576107cd610c9d565b5b600160149054906101000a900460ff1660018111156107f0576107ef610c9d565b5b14801561082957507f0000000000000000000000000000000000000000000000000000000000000000600254426108279190611275565b115b8015610839575060008080549050115b80156108455750600047115b1561084f57600191505b816040518060400160405280600381526020017f307830000000000000000000000000000000000000000000000000000000000081525091509150915091565b60007f0000000000000000000000000000000000000000000000000000000000000000905090565b60008060008054905011610900576040517f08c379a00000000000000000000000000000000000000000000000000000000081526004016108f790611458565b60405180910390fd5b6000828154811061091457610913611478565b5b9060005260206000200160009054906101000a900473ffffffffffffffffffffffffffffffffffffffff169050919050565b60008080549050905090565b600080805490508260008151811061096d5761096c611478565b5b602002602001015161097f91906114d6565b90506000818154811061099557610994611478565b5b9060005260206000200160009054906101000a900473ffffffffffffffffffffffffffffffffffffffff16600160006101000a81548173ffffffffffffffffffffffffffffffffffffffff021916908373ffffffffffffffffffffffffffffffffffffffff1602179055506000600160009054906101000a900473ffffffffffffffffffffffffffffffffffffffff1673ffffffffffffffffffffffffffffffffffffffff1647604051610a4890611538565b60006040518083038185875af1925050503d8060008114610a85576040519150601f19603f3d011682016040523d82523d6000602084013e610a8a565b606091505b5050905080610ac5576040517f90b8ec1800000000000000000000000000000000000000000000000000000000815260040160405180910390fd5b600067ffffffffffffffff811115610ae057610adf610d85565b5b604051908082528060200260200182016040528015610b0e5781602001602082028036833780820191505090505b5060009080519060200190610b24929190610bc2565b50426002819055506000600160146101000a81548160ff02191690836001811115610b5257610b51610c9d565b5b0217905550600160009054906101000a900473ffffffffffffffffffffffffffffffffffffffff1673ffffffffffffffffffffffffffffffffffffffff167f5b690ec4a06fe979403046eaeea5b3ce38524683c3001f662c8b5a829632f7df60405160405180910390a250505050565b828054828255906000526020600020908101928215610c3b579160200282015b82811115610c3a5782518260006101000a81548173ffffffffffffffffffffffffffffffffffffffff021916908373ffffffffffffffffffffffffffffffffffffffff16021790555091602001919060010190610be2565b5b509050610c489190610c4c565b5090565b5b80821115610c65576000816000905550600101610c4d565b5090565b6000819050919050565b610c7c81610c69565b82525050565b6000602082019050610c976000830184610c73565b92915050565b7f4e487b7100000000000000000000000000000000000000000000000000000000600052602160045260246000fd5b60028110610cdd57610cdc610c9d565b5b50565b6000819050610cee82610ccc565b919050565b6000610cfe82610ce0565b9050919050565b610d0e81610cf3565b82525050565b6000602082019050610d296000830184610d05565b92915050565b6000604051905090565b600080fd5b600080fd5b610d4c81610c69565b8114610d5757600080fd5b50565b600081359050610d6981610d43565b92915050565b600080fd5b6000601f19601f8301169050919050565b7f4e487b7100000000000000000000000000000000000000000000000000000000600052604160045260246000fd5b610dbd82610d74565b810181811067ffffffffffffffff82111715610ddc57610ddb610d85565b5b80604052505050565b6000610def610d2f565b9050610dfb8282610db4565b919050565b600067ffffffffffffffff821115610e1b57610e1a610d85565b5b602082029050602081019050919050565b600080fd5b6000610e44610e3f84610e00565b610de5565b90508083825260208201905060208402830185811115610e6757610e66610e2c565b5b835b81811015610e905780610e7c8882610d5a565b845260208401935050602081019050610e69565b5050509392505050565b600082601f830112610eaf57610eae610d6f565b5b8135610ebf848260208601610e31565b91505092915050565b60008060408385031215610edf57610ede610d39565b5b6000610eed85828601610d5a565b925050602083013567ffffffffffffffff811115610f0e57610f0d610d3e565b5b610f1a85828601610e9a565b9150509250929050565b600080fd5b60008083601f840112610f3f57610f3e610d6f565b5b8235905067ffffffffffffffff811115610f5c57610f5b610f24565b5b602083019150836001820283011115610f7857610f77610e2c565b5b9250929050565b60008060208385031215610f9657610f95610d39565b5b600083013567ffffffffffffffff811115610fb457610fb3610d3e565b5b610fc085828601610f29565b92509250509250929050565b600073ffffffffffffffffffffffffffffffffffffffff82169050919050565b6000610ff782610fcc565b9050919050565b61100781610fec565b82525050565b60006020820190506110226000830184610ffe565b92915050565b600080fd5b600067ffffffffffffffff82111561104857611047610d85565b5b61105182610d74565b9050602081019050919050565b82818337600083830152505050565b600061108061107b8461102d565b610de5565b90508281526020810184848401111561109c5761109b611028565b5b6110a784828561105e565b509392505050565b600082601f8301126110c4576110c3610d6f565b5b81356110d484826020860161106d565b91505092915050565b6000602082840312156110f3576110f2610d39565b5b600082013567ffffffffffffffff81111561111157611110610d3e565b5b61111d848285016110af565b91505092915050565b60008115159050919050565b61113b81611126565b82525050565b600081519050919050565b600082825260208201905092915050565b60005b8381101561117b578082015181840152602081019050611160565b60008484015250505050565b600061119282611141565b61119c818561114c565b93506111ac81856020860161115d565b6111b581610d74565b840191505092915050565b60006040820190506111d56000830185611132565b81810360208301526111e78184611187565b90509392505050565b60006020828403121561120657611205610d39565b5b600061121484828501610d5a565b91505092915050565b60006040820190506112326000830185610ffe565b61123f6020830184610ffe565b9392505050565b7f4e487b7100000000000000000000000000000000000000000000000000000000600052601160045260246000fd5b600061128082610c69565b915061128b83610c69565b92508282039050818111156112a3576112a2611246565b5b92915050565b60006080820190506112be6000830187610c73565b6112cb6020830186610c73565b6112d86040830185610c73565b6112e56060830184610c73565b95945050505050565b6000819050919050565b611301816112ee565b82525050565b600067ffffffffffffffff82169050919050565b61132481611307565b82525050565b600061ffff82169050919050565b6113418161132a565b82525050565b600063ffffffff82169050919050565b61136081611347565b82525050565b600060a08201905061137b60008301886112f8565b611388602083018761131b565b6113956040830186611338565b6113a26060830185611357565b6113af6080830184611357565b9695505050505050565b6000815190506113c881610d43565b92915050565b6000602082840312156113e4576113e3610d39565b5b60006113f2848285016113b9565b91505092915050565b600082825260208201905092915050565b7f4e6f20706c617965727320706172746963697061746564210000000000000000600082015250565b60006114426018836113fb565b915061144d8261140c565b602082019050919050565b6000602082019050818103600083015261147181611435565b9050919050565b7f4e487b7100000000000000000000000000000000000000000000000000000000600052603260045260246000fd5b7f4e487b7100000000000000000000000000000000000000000000000000000000600052601260045260246000fd5b60006114e182610c69565b91506114ec83610c69565b9250826114fc576114fb6114a7565b5b828206905092915050565b600081905092915050565b50565b6000611522600083611507565b915061152d82611512565b600082019050919050565b600061154382611515565b915081905091905056fea2646970667358221220ee3b55549e454b28b8334a7c23d879ddf34e514e825d9598634dfbf00dafe21e64736f6c63430008110033",
  "devdoc": {
    "author": "Shadab Iqbal",
    "details": "This contract utilizes Chainlink VRF v2 and Chainlink Keepers",
    "kind": "dev",
    "methods": {
      "checkUpkeep(bytes)": {
        "details": "This is the function that the Chainlink Keeper nodes call they look for `upkeepNeeded` to return True. If checkUpKeep() returns true, the \"performUpKeep\" function will be called. The following should be true for this to return true: 1. The lottery is open. 2. The time interval has passed between raffle runs. 3. There is atleast 1 participant 4. The contract has ETH. 5. Implicity, your subscription is funded with LINK."
      }
    },
    "title": "An unbiased lottery contract",
    "version": 1
  },
  "userdoc": {
    "kind": "user",
    "methods": {},
    "notice": "This contract is to create an untamperable decentralized lottery system",
    "version": 1
  },
  "storageLayout": {
    "storage": [
      {
        "astId": 206,
        "contract": "contracts/Raffle.sol:Raffle",
        "label": "s_players",
        "offset": 0,
        "slot": "0",
        "type": "t_array(t_address)dyn_storage"
      },
      {
        "astId": 208,
        "contract": "contracts/Raffle.sol:Raffle",
        "label": "s_recentWinner",
        "offset": 0,
        "slot": "1",
        "type": "t_address"
      },
      {
        "astId": 226,
        "contract": "contracts/Raffle.sol:Raffle",
        "label": "s_raffleState",
        "offset": 20,
        "slot": "1",
        "type": "t_enum(RaffleState)201"
      },
      {
        "astId": 230,
        "contract": "contracts/Raffle.sol:Raffle",
        "label": "s_lastTimeStamp",
        "offset": 0,
        "slot": "2",
        "type": "t_uint256"
      }
    ],
    "types": {
      "t_address": {
        "encoding": "inplace",
        "label": "address",
        "numberOfBytes": "20"
      },
      "t_array(t_address)dyn_storage": {
        "base": "t_address",
        "encoding": "dynamic_array",
        "label": "address[]",
        "numberOfBytes": "32"
      },
      "t_enum(RaffleState)201": {
        "encoding": "inplace",
        "label": "enum Raffle.RaffleState",
        "numberOfBytes": "1"
      },
      "t_uint256": {
        "encoding": "inplace",
        "label": "uint256",
        "numberOfBytes": "32"
      }
    }
  }
}